:020000020000FC
:101100003140000A3C4000023D400400B01284110E
:10111000B0121811B0129611B240805A2001B012CC
:1011200064115E423200F24332005F423100F2430A
:101130003100033CF240F700310092D3A0011E427F
:1011400040010F43824E0002824F0202829302024C
:101150000538F023B29000080002EC2FF240FE00A8
:101160003100EB3FE2D33700B2409008A001B2401B
:101170000202A201D2438000B2408000A601A2D3A5
:10118000A00130410F4C0F5D033CCC4300001C53C9
:101190000C9FFB23304130409A1130409E11FF3F9D
:02FFFE000011F0
:0400000300001100E8
:00000001FF
